S00F00004C4452436F64652E73726563B8
S11300000C942A000C9447000C9447000C9447006D
S11300100C9447000C9447000C9447000C94470040
S11300200C9447000C9447000C9447000C94470030
S11300300C9447000C9447000C9447000C94470020
S11300400C9447000C9447000C9447000C94470010
S11300500C94470011241FBECFE5D8E0DEBFCDBF0E
S113006010E0A0E6B0E0ECE6F2E002C005900D92EC
S1130070A837B107D9F720E0A8E7B0E001C01D9286
S1130080A837B207E1F70E94B9000C9434010C942C
S1130090000082BB84E088BB89EF90E00197F1F710
S11300A000C0000018BA83ED90E30197F1F700C097
S11300B00000089588E30E94490089EF90E00197C9
S11300C0F1F700C0000081E00E94490089EF90E050
S11300D00197F1F700C000008EE00E94490089EF0B
S11300E090E00197F1F700C00000089582BB85E01D
S11300F088BB89EF90E00197F1F700C0000081E030
S113010088BB81EE94E00197F1F700C000000895E8
S1130110EF92FF921F93CF93DF937C01162FC0E0E1
S1130120D0E007C0F701EC0FFD1F80810E9476002C
S11301302196812F90E0C817D907A4F3DF91CF91BE
S11301401F91FF90EF90089580E80E944900089560
S113015080EC0E944900089580E487B987E886B955
S1130160089586B1806486B93699FECF84B195B17D
S11301700895CF93DF93CDB7DEB72A970FB6F894DF
S1130180DEBF0FBECDBF8FEF81BB87E087BB81E0B1
S113019084BB0E94AC000E945A0081EE94E0019757
S11301A0F1F700C0000080E00E94B1008C010E94C1
S11301B0A4006EE080E690E00E9488000E94A800FF
S11301C068E08FE690E00E9488004AE0BE016F5F1D
S11301D07F4FC8010E94FF0065E0CE0101960E9496
S11301E0880083EC99E00197F1F700C00000043F18
S11301F0114018F481E085BBD6CF15BAD4CFBB2704
S11302004A3031F4992322F4BDE2909581959F4FB1
S11302100C940B01BB27FB015527AA27880F991FB4
S1130220AA1FA41710F0A41B83955051B9F7A05D21
S1130230AA3308F0A95DA193009779F7B111B1939E
S11302401192CB010C942401DC01FC01672F719104
S11302507723E1F7329704C07C916D9370836291A8
S10F0260AE17BF07C8F30895F894FFCF51
S113026C434952435549542044494745535400414A
S10B027C44432076616C3A0052
S9030000FC
